:020000040000fa
:080000000002040000000000f2
:020000040000fa
:040008003e030000b3
:020000040000fa
:04000c00cc02000022
:020000040000fa
:0400100006030000e3
:020000040000fa
:04001400e8020000fe
:020000040000fa
:0400180022030000bf
:020000040000fa
:04001c003e0300009f
:020000040000fa
:040020003e0300009b
:020000040000fa
:040024003e03000097
:020000040000fa
:040028003e03000093
:020000040000fa
:04002c003e0300008f
:020000040000fa
:040030003e0300008b
:020000040000fa
:040034003e03000087
:020000040000fa
:040038003e03000083
:020000040000fa
:04003c003e0300007f
:020000040000fa
:040040003e0300007b
:020000040000fa
:040044003e03000077
:020000040000fa
:040048003e03000073
:020000040000fa
:04004c003e0300006f
:020000040000fa
:040050003e0300006b
:020000040000fa
:040054003e03000067
:020000040000fa
:040058003e03000063
:020000040000fa
:04005c003e0300005f
:020000040000fa
:040060003e0300005b
:020000040000fa
:040064003e03000057
:020000040000fa
:040068003e03000053
:020000040000fa
:04006c003e0300004f
:020000040000fa
:040070003e0300004b
:020000040000fa
:040074003e03000047
:020000040000fa
:040078003e03000043
:020000040000fa
:04007c003e0300003f
:020000040000fa
:040080003e0300003b
:020000040000fa
:040084003e03000037
:020000040000fa
:040088003e03000033
:020000040000fa
:04008c003e0300002f
:020000040000fa
:040090003e0300002b
:020000040000fa
:040094003e03000027
:020000040000fa
:040098003e03000023
:020000040000fa
:04009c003e0300001f
:020000040000fa
:0400a0003e0300001b
:020000040000fa
:0400a4003e03000017
:020000040000fa
:0400a8003e03000013
:020000040000fa
:0400ac003e0300000f
:020000040000fa
:0400b0003e0300000b
:020000040000fa
:0400b4003e03000007
:020000040000fa
:0400b8003e03000003
:020000040000fa
:0400bc003e030000ff
:020000040000fa
:0400c0003e030000fb
:020000040000fa
:0400c4003e030000f7
:020000040000fa
:0400c8003e030000f3
:020000040000fa
:0400cc003e030000ef
:020000040000fa
:0400d0003e030000eb
:020000040000fa
:0400d4003e030000e7
:020000040000fa
:0400d8003e030000e3
:020000040000fa
:0400dc003e030000df
:020000040000fa
:0400e0003e030000db
:020000040000fa
:0400e4003e030000d7
:020000040000fa
:0400e8003e030000d3
:020000040000fa
:0400ec003e030000cf
:020000040000fa
:0400f0003e030000cb
:020000040000fa
:0400f4003e030000c7
:020000040000fa
:0400f8003e030000c3
:020000040000fa
:0400fc003e030000bf
:020000040000fa
:040100003e030000ba
:020000040000fa
:040104003e030000b6
:020000040000fa
:040108003e030000b2
:020000040000fa
:04010c003e030000ae
:020000040000fa
:040110003e030000aa
:020000040000fa
:040114003e030000a6
:020000040000fa
:040118003e030000a2
:020000040000fa
:04011c003e0300009e
:020000040000fa
:040120003e0300009a
:020000040000fa
:040124003e03000096
:020000040000fa
:040128003e03000092
:020000040000fa
:04012c003e0300008e
:020000040000fa
:040130003e0300008a
:020000040000fa
:040134003e03000086
:020000040000fa
:040138003e03000082
:020000040000fa
:04013c003e0300007e
:020000040000fa
:040140003e0300007a
:020000040000fa
:040144003e03000076
:020000040000fa
:040148003e03000072
:020000040000fa
:04014c003e0300006e
:020000040000fa
:040150003e0300006a
:020000040000fa
:040154003e03000066
:020000040000fa
:040158003e03000062
:020000040000fa
:04015c003e0300005e
:020000040000fa
:040160003e0300005a
:020000040000fa
:040164003e03000056
:020000040000fa
:040168003e03000052
:020000040000fa
:04016c003e0300004e
:020000040000fa
:040170003e0300004a
:020000040000fa
:040174003e03000046
:020000040000fa
:040178003e03000042
:020000040000fa
:04017c003e0300003e
:020000040000fa
:040180003e0300003a
:020000040000fa
:040184003e03000036
:020000040000fa
:040188003e03000032
:020000040000fa
:04018c003e0300002e
:020000040000fa
:040190003e0300002a
:020000040000fa
:040194003e03000026
:020000040000fa
:040198003e03000022
:020000040000fa
:04019c003e0300001e
:020000040000fa
:0401a0003e0300001a
:020000040000fa
:0401a4003e03000016
:020000040000fa
:0401a8003e03000012
:020000040000fa
:0401ac003e0300000e
:020000040000fa
:040208003e030000b1
:020000040000fa
:04020c003e030000ad
:020000040000fa
:040210003e030000a9
:020000040000fa
:040214003e030000a5
:020000040000fa
:040218003e030000a1
:020000040000fa
:04021c003e0300009d
:020000040000fa
:040220003e03000099
:020000040000fa
:040224003e03000095
:020000040000fa
:040228003e03000091
:020000040000fa
:04022c003e0300008d
:020000040000fa
:040230003e03000089
:020000040000fa
:040234003e03000085
:020000040000fa
:040238003e03000081
:020000040000fa
:04023c003e0300007d
:020000040000fa
:040240003e03000079
:020000040000fa
:040244003e03000075
:020000040000fa
:040248003e03000071
:020000040000fa
:04024c003e0300006d
:020000040000fa
:040250003e03000069
:020000040000fa
:040254003e03000065
:020000040000fa
:040258003e03000061
:020000040000fa
:04025c003e0300005d
:020000040000fa
:040260003e03000059
:020000040000fa
:040264003e03000055
:020000040000fa
:040268003e03000051
:020000040000fa
:04026c003e0300004d
:020000040000fa
:040270003e03000049
:020000040000fa
:040274003e03000045
:020000040000fa
:040278003e03000041
:020000040000fa
:04027c003e0300003d
:020000040000fa
:040280003e03000039
:020000040000fa
:040284003e03000035
:020000040000fa
:040288003e03000031
:020000040000fa
:04028c003e0300002d
:020000040000fa
:040290003e03000029
:020000040000fa
:040294003e03000025
:020000040000fa
:040298003e03000021
:020000040000fa
:04029c003e0300001d
:020000040000fa
:0402a0003e03000019
:020000040000fa
:0402a4003e03000015
:020000040000fa
:0402a8003e03000011
:020000040000fa
:0402ac003e0300000d
:020000040000fa
:0402b0003e03000009
:020000040000fa
:0402b4003e03000005
:020000040000fa
:0402b8003e03000001
:020000040000fa
:0402bc003e030000fd
:020000040000fa
:0402c0003e030000f9
:020000040000fa
:0402c4003e030000f5
:020000040000fa
:0402c8003e030000f1
:020000040000fa
:0402cc003e030000ed
:020000040000fa
:0402d0003e030000e9
:020000040000fa
:0402d4003e030000e5
:020000040000fa
:0402d8003e030000e1
:020000040000fa
:0402dc003e030000dd
:020000040000fa
:0402e0003e030000d9
:020000040000fa
:0402e4003e030000d5
:020000040000fa
:0402e8003e030000d1
:020000040000fa
:0402ec003e030000cd
:020000040000fa
:0402f0003e030000c9
:020000040000fa
:0402f4003e030000c5
:020000040000fa
:0402f8003e030000c1
:020000040000fa
:0402fc003e030000bd
:020000040000fa
:040300003e030000b8
:020000040000fa
:040304003e030000b4
:020000040000fa
:040308003e030000b0
:020000040000fa
:04030c003e030000ac
:020000040000fa
:040310003e030000a8
:020000040000fa
:040314003e030000a4
:020000040000fa
:040318003e030000a0
:020000040000fa
:04031c003e0300009c
:020000040000fa
:040320003e03000098
:020000040000fa
:040324003e03000094
:020000040000fa
:040328003e03000090
:020000040000fa
:04032c003e0300008c
:020000040000fa
:040330003e03000088
:020000040000fa
:040334003e03000084
:020000040000fa
:040338003e03000080
:020000040000fa
:04033c003e0300007c
:020000040000fa
:040340003e03000078
:020000040000fa
:040344003e03000074
:020000040000fa
:040348003e03000070
:020000040000fa
:04034c003e0300006c
:020000040000fa
:040350003e03000068
:020000040000fa
:040354003e03000064
:020000040000fa
:040358003e03000060
:020000040000fa
:04035c003e0300005c
:020000040000fa
:040360003e03000058
:020000040000fa
:040364003e03000054
:020000040000fa
:040368003e03000050
:020000040000fa
:04036c003e0300004c
:020000040000fa
:040370003e03000048
:020000040000fa
:040374003e03000044
:020000040000fa
:040378003e03000040
:020000040000fa
:04037c003e0300003c
:020000040000fa
:040380003e03000038
:020000040000fa
:040384003e03000034
:020000040000fa
:040388003e03000030
:020000040000fa
:04038c003e0300002c
:020000040000fa
:040390003e03000028
:020000040000fa
:040394003e03000024
:020000040000fa
:040398003e03000020
:020000040000fa
:04039c003e0300001c
:020000040000fa
:0403a0003e03000018
:020000040000fa
:0403a4003e03000014
:020000040000fa
:0403a8003e03000010
:020000040000fa
:0403ac003e0300000c
:020000040000fa
:10040000cf9820000eff20000e01880000000000a1
:10041000000020000000e000020032000001200087
:100420002002880014000700a50007000000e0007b
:1004300003003a000077220001002000020037008c
:100440000000200001002000810f70000100320038
:1004500014000700000020000000e000020032004d
:100460000000020000000000f6180200000000007a
:100470000040da000000fe004440a90020312000c6
:100480000000e0000300320000002000a00188000e
:100490004440a800000006008a1f78008b1f7800e7
:1004a0000000060091018800800478000000eb0045
:1004b0001a003700e284440032a0b4009905ba0063
:1004c000e284440032a0b4009906ba00e2844400f9
:1004d00032a0b4000006eb00476fde00fd07b2005b
:1004e000636ce10003003a00ebff07000000eb0043
:1004f0000a003700606ce10004003a00005deb0088
:100500008b05e900fdff3e00040037006168e10053
:10051000010032000086eb000b00070019c7ba008b
:100520001905ba000e04e00003003a000a00e000da
:10053000e0ff3a0000000600fe07b2009e018800be
:100540008a047800f5ff3700395dba008b05e900b1
:100550000c003200295dba008b05e900080032006a
:100560000c00e00003003a00e284440032a0b40032
:10057000f5ff370019ddba008b05e900faff3a00f4
:100580008904e800e184440032a0b40000000600c1
:1005900000000000000000003600f800809fbe0050
:1005a000829fbe00849fbe00869fbe008020a9005f
:1005b0000000eb004e1307004f03be004f02be00c9
:1005c0004f01be004f00be003600f900004006009b
:1005d0003600f800809fbe00829fbe00849fbe0050
:1005e000869fbe003d1307008040a9001000200038
:1005f0003f1307004f03be004f02be004f01be0075
:100600004f00be003600f900004006003600f8003a
:10061000809fbe00829fbe00849fbe00869fbe005a
:100620008060a90020002000311307004f03be00a6
:100630004f02be004f01be004f00be003600f90061
:10064000004006003600f800809fbe00829fbe007a
:10065000849fbe00869fbe008080a90030002000dd
:10066000231307004f03be004f02be004f01be0020
:100670004f00be003600f900004006000040da00de
:100680000000fe00889fbe008a1f78008104780069
:10069000020578000a00e000050032000a04780034
:1006a000394078008e1207000804e900fcff3a0088
:1006b0000a0078004f0578004f04be0000000600d5
:1006c0000000050003f0a200889fbe008a9fbe00c4
:1006d0008c1f78008c010700930133006450e10007
:1006e0004f0032006420e1005200320003826c00af
:1006f00007003b000905d0000306d000820f54001c
:100700000c065d0002003900020032008901780009
:10071000030678008582550004003d000003fd00bb
:100720008103fd008502ea008b854200840f720080
:1007300002003b0060001000e08018006011b8006b
:100740000005eb007a28e1000a0039000600780075
:10075000c75ddd00f707b200878075002d00370008
:10076000828171000a017800610560008180d100fa
:100770000080d3008502e900f9ff3b000604400039
:100780008784480002003b0060041400e0841c00e1
:100790000988a300070032008a81710082817100fc
:1007a000610164008904d1000884d3008b05e8004e
:1007b000170037000978a30013003a000b00e0008f
:1007c000130034008b05e9000804440089844c00c0
:1007d0000a4474000978a3000d003a000b00e00001
:1007e000070034008b05e9000804440089844c00ac
:1007f00001003a000b0020000978a300f7ff320047
:100800000001eb0002003700828171000a017800cc
:10081000020107000cf0a70001f0a0004b01370017
:100820006420e10002003a00838f6c004b0133002a
:100830000801be000200be0044013700889fbe00d0
:100840008a9fbe008c1f78002f01070036013300fd
:1008500003866c006450e1002e0032006420e10049
:10086000330032006150e1002f0032006120e100ce
:100870003100320085855500eb07b00009002000eb
:1008800008042000050037000804440089844c0057
:100890000a0031000603430087834b000001530028
:1008a00081815b00f8ff33000203be000800a00056
:1008b0000804440089844c00f6ff3900c639dd0085
:1008c0008301730001003200130020008904d1006d
:1008d0000884d3000998a300050032000800a7008f
:1008e0000300a0008904d1000884d3008b05e80030
:1008f0008904d1000884d3000001eb000281d200fa
:10090000c600070001f0a1000cf0a70001f0a00054
:100910000e0137006420e100100132000801be0022
:100920000200be00f7ff37006120e1000b0132003a
:100930006000b800f3ff37000000200001f8270036
:10094000f0ff3700839f68000100e00002003d00d7
:1009500060001000e08018000300e00002003d008d
:1009600060011100e0811900550107004f00e0000f
:1009700002003b0060001000e0801800000006004c
:10098000889fbe008a9fbe008c9fbe000004be00f0
:10099000c80007000800be006420e10048003e00d7
:1009a0005500320072212700132b24005800070045
:1009b00047003c000800be00c2ec2800e32c2c00dd
:1009c00051000700470035000800be0001f0a100fb
:1009d00002002000033823004b00070043003500cd
:1009e0000800be00b2a32a0083fb23000001070019
:1009f0000200200003f0230001f0a70003f0a00094
:100a000031ff0700440007000005be007e0007001c
:100a100001f0a2000006be000200280013f323002c
:100a2000f30007000801be0027ff0700809fbe00fb
:100a30000c00be0032082800e3952b00ec000700f4
:100a40004f01be0020ff07000006be000001be00ef
:100a5000e7000700809fbe004241250083b82300c5
:100a6000e30007000200200003e8230016ff070050
:100a70000c01be00de0007000006be004f00be00f5
:100a8000f2f92b00c3d42300d90007000200200094
:100a900003f023000cff07000c01be0009ff070054
:100aa0000001be000c00be0064ff07000200200031
:100ab00003f0230004ff070061014500aa000700be
:100ac0004f06be004f05be004f04be0000000600ea
:100ad00001f8270000002000220220006248880060
:100ae000f7ff37006000b800fbff370001f8230074
:100af00000002000f2ff370009f8a300f0ff3200e9
:100b00006000b800eeff370014002000fc00370042
:100b1000f4ff2f00fa0037000001be006500070057
:100b20000470a70003f0a1006509b10016003200af
:100b30000d0035006828e10006003500f0ff2f00a9
:100b4000f1ff27000300e00013003b000100280034
:100b50000000050000004000818048008502e90097
:100b6000fcff3a0008003700f88f420002003c000a
:100b70008000eb00000005008100d1000080d30060
:100b80008502e800fcff3a000300e00002003b00a1
:100b900060001000e0801800000006000001be00a8
:100ba000440007000470a70003f0a10003f8a300ad
:100bb00013003a006509b100100032000900350049
:100bc0006928e1000200350001002800000005004e
:100bd00000004000818048008502e900fcff3a00e7
:100be00000000600f88f4200050035008100d100aa
:100bf0000080d3008502e800fcff3a0000000600f8
:100c00008000eb00000005004f89de0082017800c3
:100c1000d60037006011b800e400370081002000e2
:100c2000618055000b003d000b00200061fe2f008d
:100c30000100e1001d003400828171006101640047
:100c40008904d1000884d3000000e800faff3a00cc
:100c50007100200061006400030070000200600069
:100c60000900320061044400e0844c000988a500ba
:100c7000050032008b05e8006808e10002003a0038
:100c80008904d1000884d300f20f20000258e1004b
:100c900005003d00c75ddd00f907b20089807500e1
:100ca00008007800000006000bf827008b00780091
:100cb00000000500c70ade00f107b200f50fb20020
:100cc00008003200e1cf4200020032000170a000b3
:100cd00024000500810f70000100320004080500a7
:100ce00044000500810f700002003a001400050066
:100cf0008502e9000000400081c04800fcff3b0085
:100d00000170a000240005000004be00e9ff0700f8
:100d10000003be000405be000200be00e5ff0700a0
:100d2000844f7500000006000200be006450e10020
:100d3000050036006420e100020036000968a300c7
:100d400001003a000800be000160a0004f067800d4
:100d50004f05be004f04be0000000600f0ff2f004c
:100d6000f1ff2700f9ff37000003be00d1ff0700a5
:100d70006220e100020032000600be000000060012
:100d800085024100e30f20000328e10005003c003c
:100d9000a3fe2f000328e10007003d00050020000e
:100da00001003700f50f2000200220006048880075
:100db0006000b80008003700130020008381520053
:100dc00005003d008100d1000080d3008301e800d0
:100dd000fcff3a0005002000c72add00f107b20041
:100de0008580700007f0a70001f0a0000000060059
:100df000889fbe008a9fbe008c1f7800c2ff07003c
:100e0000c9ff330003866c006450e1002400320007
:100e10006420e100270032006150e100220032002e
:100e20006120e100210032008b854200eb07b10018
:100e30000134b800003ab8000804420089844a002e
:100e4000013ab8000030b8008880400009014a002b
:100e50000400330000004000818048000201490086
:100e60008b05e900c909dd00830170000100320033
:100e700013002000c814de004814dd004709de001e
:100e80001200b200c808de000884700063ff07008b
:100e900001f0a1000cf0a70001f0a000abff3700ab
:100ea0006120e100adff32000801be000200be007b
:100eb000f7ff37006150e100fcff3a00a7ff370061
:100ec0006022b800060220000000d0008180d2001d
:100ed0000482d2008582d2000000a00002025200eb
:100ee00083825a00030031000202420083824a00da
:100ef0000000a1000603e900f3ff3a00000006002d
:100f0000889fbe008a9fbe00841f78007eff070076
:100f10004f00780011003300f0ff2f00838f6c002a
:100f200006003b00040565000a00a7000800370022
:100f300009f0a6001000200008003700820f5400be
:100f4000838f5c00030039001000200001003e0088
:100f50000000200009f0a7000000ea004f05be00d5
:100f60004f04be000000e00000000600881f78006b
:100f7000030478000300e00007003d00600010005b
:100f8000e080180060011900e081190002003b00b8
:100f900001f02d00030037000400070008f0a7004f
:100fa00001f0a0004f04780000000600889fbe00fa
:100fb0008a9fbe00008270000402710004827100ea
:100fc000260032000004be000200be006011b8001e
:100fd0006b092000950220000182cf000a00390031
:100fe0000541b1000082cf00070039000541b10082
:100ff0000982cf00040039000541b1000882cf000a
:10100000010039000541b1000542520012003200d2
:101010000a003b0082817100610164008100d100ff
:101020000080d3008984d3000884d3008b05e800b6
:101030000442e800f7ff3a000700370008044400c4
:1010400089844c0000004800818048008b05e9003d
:101050000442e900f9ff3a00f0fe07004f05be0028
:101060004f04be00000006008000780001007800f8
:101070003041780003c2b300834f5100faff3200c1
:10108000e94f5100f8ff3200edc14100834f51009c
:1010900003003a008000780013c0b3000500370059
:1010a0008041eb00b4c2b300844f510001003a000c
:1010b000800078000000eb00020037006a02b900ef
:1010c000040041003101fb000203b100e90f5100af
:1010d000faff36000304e000010032000000ea00dd
:1010e00000000600889fbe008a1f78003044780008
:1010f0008004780001c2b300814f5400fbff32002e
:10110000e94f5400f9ff3200d0c2b300804f5400c1
:1011100003003a00394478001ac0b30005003700d4
:101120000045eb00b0c2b300804f540001003a000c
:10113000394478006000b8000a003700a20020009f
:10114000030020006403070002cdb3000241440005
:101150000281fb008001eb00020040008380480018
:10116000394478000881fb000203b100e90f510007
:10117000f2ff36000a04e0000200320060001000b6
:10118000e08018004f0578004f04be000000060004
:10119000889fbe000004be00050037000000fb0071
:1011a0008900780012000700e10f400004003200bf
:1011b000384078000004e000f8ff3a000000eb003f
:1011c0004f04be0000000600881f7800c196200072
:1011d000efff070000047800c1962000a000200067
:1011e00003000700080078004f04780000000600a4
:1011f000889fbe0001047800b80090008084eb0056
:101200000118a3003a003200180190000198a300d1
:1012100002003a000200e00035003a000190a00010
:101220003104980080047800f90fb2000200e00059
:1012300002003a0028009000000c7800ea8f540069
:1012400005003a000178a30003003a008800780006
:10125000d0002000e6ff070018009000d8009000a2
:10126000810f50000b0032000000e80010049800cd
:101270001800780009487800000ce80011c0b3009d
:101280006098200001487800ea8f540018003a0066
:10129000050037008800780009407800200007002a
:1012a0008004780012003700380090000088a30006
:1012b0000f00320018019000a80090004800900034
:1012c000f0fc070098009000810f500004003200ed
:1012d000380090000003b300300498008084eb00d5
:1012e0000000eb001004980028009000000c78002b
:1012f000090078004f04be0000000600c1962000df
:10130000bbff37000000fa0068815700cfb8970094
:10131000c09620004a0007000080fa000000060086
:101320000200fa00889fbe00a0ff9f000104780021
:10133000380090000068a30033003a00e20060002b
:1013400005003a000003b30030049800110498002f
:101350000080eb002e003700d80490000900e00068
:1013600006003a0012002000e68057004800900076
:10137000c4fc07001904980023003700a80090005f
:101380000100e00008003a00919820002104980034
:10139000010c7800210020005104980011049800ed
:1013a0000030a0003004980018019000a8009000c0
:1013b00048009000b3fc0700280090008080eb00fc
:1013c00011049800aff8970001487800000ce8007d
:1013d0002ff89700ea4f50000b003a0038009000b9
:1013e0000088a3000800320018019000a8009000b7
:1013f00048009000a3fc07000000eb0010049800d8
:10140000a8009000010c7800aff897000100fb00e5
:101410004f04be000080fa0000000600d0019000da
:10142000028151004240a9000300340010017800fd
:10143000014978000208e800010078000000060079
:10144000f6874700889fbe008a9fbe008c9fbe0023
:101450008e1f780000057800a1b79f000207780072
:101460008004eb0090023700afb097008100e800e5
:10147000a1b79f0051c2b300814f500003003a0052
:10148000afb097000004eb0011003700ba009000e5
:101490000000fb000168a30007003200090178008a
:1014a000800078000a007800dcff07000000e00000
:1014b00005003a007c0237008a0078004cff0700e4
:1014c000e10f4000780232008904e800760237001c
:1014d0000100780031417800d3c2b300834f51003e
:1014e0000c00320007003c00edc15100834f510059
:1014f0000a003200ebc14100834f51000d003a0059
:101500000800370003c3b300834f510009003a00bd
:10151000060037000830a000edff37000800a000eb
:10152000ebff37000810a000e9ff37000820a000fb
:10153000e7ff37000818a300010032000800a100ef
:101540000838a300010032000820a1008200fb003f
:101550000103b100e98f50000c003e00000178004b
:101560008000eb006a08b900b201fb000303b10080
:1015700080804100020078009201fb000303b1006b
:10158000e98f5100f7ff3600060037008000eb00be
:10159000a3c2b300834f510002003a00ce0078008e
:1015a0000000e8008005eb00e2c2b300904f11009c
:1015b00009003a0008e0a00064415100d04f11003a
:1015c00003003200000178000102780006003700b5
:1015d000ce0578000000e80000017800090037001f
:1015e0006a58b9008085410002007800b201fb0012
:1015f0000303b100e98f5100f9ff36008400780041
:10160000f5ff370032407800a2b79f00c3c6b30091
:10161000834f5000250032000f003c0032c6b3005b
:10162000824f50008800320004003c000004e000bb
:10163000220232006b4151000f00370042c6b30056
:10164000824f50001700320065414100824f500028
:1016500094003a001300370032c7b300824f5000a5
:101660001b00320007003c0064415100824f5000d3
:10167000100032000241e800824f500089003a0019
:101680000f00370052c7b300824f50008a0032006b
:1016900063414100824f500082003a00e0df9f002a
:1016a00009003700e0df9f00850037000840a000f8
:1016b000d4ff3700e0df9f000860a0008000370003
:1016c000e0df9f000850a0000870a0007c003700f9
:1016d000e0df9f004e007800000678000000e00088
:1016e00001003a000c9320000c0178000000eb0090
:1016f000010037000000e800e24178000304e00048
:10170000fcff3a00800678000b00e0000300320086
:101710008d8f5500010031008b0678008005eb00ad
:101720008d8f5000010036008d85500068046400e4
:101730002a003a00110037003a0090000068a30028
:101740000700320009017800010220000a00780039
:1017500032ff07000000e00006003a0006003700f4
:101760008a00780000022000a1fe0700e10f40007f
:10177000010032008904e8008b05e9000b00e0005d
:10178000edff3a008085eb00140037003a0090002e
:101790000068a300090032000c007800b000fb00d4
:1017a00000067800090178000a0078001bff070096
:1017b0000000e00008003a00080037008c007800c4
:1017c0003100fb00010678008a00780088fe0700df
:1017d000e10f4000010032008904e8000d007800ac
:1017e0008006e9000000e000e8ff3a000800e000a1
:1017f000ad013200110037003a0090000068a300ec
:101800000700320009017800010220000a00780078
:1018100002ff07000000e00006003a000600370063
:101820008a0078000002200071fe0700e10f4000ee
:10183000010032008904e8008b05e9000b00e0009c
:10184000edff3a00980137004e017800cf91de009d
:10185000c81ade004818dd004812de0004027000dd
:10186000e4df9f000848a300080032000404e00001
:1018700006003200e14f420004003200f4df9f0016
:1018800082e79f002d00200002003700f2df9f005a
:101890001d002000e2fd2f000f0141000206e800bc
:1018a00099ff3700e0df9f00ecfd2f000f06460098
:1018b0001d00200094ff3700e0df9f00080cb300fc
:1018c00008017800020cb200700064000200e00021
:1018d0000d003a000000e000020032004e06be009b
:1018e000020037004e067800cfe6de00e00f56001b
:1018f000e08f5e000a003d003800b300600616006d
:10190000e0861e00060037000000e0000200320002
:101910004e06be00020037004e0678008006eb003f
:101920000b00e00005003a008c8576000bf0a70064
:101930008b05ea008b05e900cf5dde0088017800a9
:10194000030cb200e3b79f0000042000808f510019
:101950002300320003003c000300e00008003200d6
:101960002d003700000820006fb29700800f520052
:101970000d003200000c2000800f520026003a00bb
:101980008293200010c0b30064014100b20f5600e2
:10199000a28f5e001f0039000040e800ea4f5000af
:1019a000f9ff3a001b00370010c0b300020120000d
:1019b00003002000820f5600838f5e00150039005f
:1019c000441add00cc11de00830172004411dd00f9
:1019d0000040e800e84f5000f6ff3a000d003700e5
:1019e00010c0b3008200200003002000820f5600c8
:1019f000838f5e0007003900431add00cd11de0041
:101a0000830172004311dd000040e800eb4f5000fd
:101a1000f6ff3a00e0df9f006fd997000200fb005d
:101a20008b0f500002003d00ebdf9f0003003700ea
:101a3000808f550001003d00800578000100e00026
:101a40000300320063006400010032008100e900fd
:101a500008e8a300050032008b8f5000020034001c
:101a60008b805000010037008000eb00efd9970019
:101a70000300fb000002eb00d4b79f00808f5000f2
:101a80000200340000805000d0b79f000828a30057
:101a900040003200610164000818a3000f0032000a
:101aa0003a0090000068a30006003200b102200056
:101ab0000200e000010032008180e80009017800a6
:101ac0000d003700b00220000200e00001003200eb
:101ad0000080e8008a0078000e0037000200e00075
:101ae000100032003a0090000068a30007003200a6
:101af00009017800010220000a00780047fe070073
:101b00000000e00006003a00060037008a00780076
:101b100000022000b6fd0700e10f40000100320086
:101b20008904e8005fb097000000e0005a0032002e
:101b3000bcb79f00cdb79f00800678003a009000a8
:101b40000068a300070032000901780001032000ab
:101b50000a00780031fe07000000e00006003a00ad
:101b6000060037008a00780000032000a0fd07006f
:101b7000e10f4000010032008904e8008d06e90011
:101b8000eeff3a00ddb79f003fb69700cfb6970053
:101b900041003700dfb197000300e0001a00320077
:101ba0000838a30018003a00bcb79f00cdb79f00cb
:101bb000830678003a0090000068a3000700320016
:101bc00009017800010220000a00780013fe0700d6
:101bd0000000e00006003a00060037008a007800a6
:101be0000002200082fd0700e10f400001003200ea
:101bf0008904e8008d06e900eeff3a00ddb79f009a
:101c00003fb69700cfb69700610164000818a300a3
:101c10000f0032003a0090000068a3000600320076
:101c2000b10220000200e000010032008180e800e3
:101c3000090178000d003700b00220000200e0002a
:101c4000010032000080e8008a0078000e003700b2
:101c50000200e000100032003a0090000068a3008b
:101c60000700320009017800010220000a00780014
:101c7000eafd07000000e00006003a000600370019
:101c80008a0078000002200059fd0700e10f4000a3
:101c9000010032008904e8000b03e9006330b90059
:101ca00000017800b2b79f004233dd00809320002e
:101cb000000343008e01780093b79f000807780067
:101cc000060478005c0037008b05e9000004200062
:101cd0006fb29700800f52003800320003003c00c2
:101ce0000400e000080032003e0037000008200039
:101cf000efb09700808f500020003200000c2000d1
:101d0000808f500037003a000e48a30010003200c8
:101d10001802be000401be000c00be00f4b79f0014
:101d200085bf9f0066fc0700e0df9f000000fb000e
:101d3000cf80de007fb297008fba97000401be000b
:101d4000650007000006560081865e000700370028
:101d500018017800110009000286d800a2002000b6
:101d6000110009000280d800e1df9f006fd99700c1
:101d70000243b000e2df9f001a003700f09120001c
:101d80000e58a30001003200e09020008193200053
:101d9000810054000c01be008100e9000300330003
:101da0008301d1000281d300fbff3700ef00610007
:101db000e0c07800e1df9f000a0037000c00be00a1
:101dc000bfb197008301e900030033008100d10017
:101dd0000080d300fbff3700674060000043b00085
:101de000e0df9f00ba0090006fda97000400fb006c
:101df0000168a30007003200090178008000780024
:101e00000a00780085fd07000000e00005003a00a8
:101e1000050037008a007800f5fc0700e10f40005c
:101e2000010032008904e8003fb0970063005000d1
:101e3000b0b79f00640454000b00e000a2ff3a001a
:101e40000e0478001fb797000838a3001600320070
:101e5000dfb097000100e0001300340001047800b7
:101e60003a0090000068a3000700320009017800e2
:101e7000010220000a00780068fd07000000e00071
:101e800006003a00060037008a00780000022000b1
:101e9000d7fc0700e10f4000010032008904e80090
:101ea0000804e900eeff3a002fb1970012407800d5
:101eb000e0df9f000004e0006bfd3a0009007800bd
:101ec0004f0778004f06be004f05be004f04be000e
:101ed0006f01b10000000600020ab900001bb90042
:101ee0000200b800810042008100430000000600ab
:020000040000fa
:101ef000556e00006c0000006f6300006b20000056
:101f000045450000505200004f4d00003f3a000090
:101f1000200000005375000063630000657300003b
:101f2000730d000000460000616900006c0d0000a8
:101f3000000d000000250000732c0000202500008b
:101f40006c6400002c200000256400002c200000a0
:101f5000257500002c200000257500002c200000b5
:101f6000257500002c20000025750000200d0000c4
:101f70000a000000257300002c200000256c0000e2
:101f8000642c000020250000642c000020250000a7
:101f9000752c000020250000752c00002025000075
:101fa000752c000020250000752c00002025000065
:101fb00030320000752c0000202500003032000077
:101fc000752c00002025000030320000752c000028
:101fd0002025000030320000752000000d0a0000ae
:101fe0000053000065720000696100006c2c000065
:101ff00020500000504200002c20000054780000c7
:1020000031300000302c0000204800007831000002
:10201000303000002c20000041440000435f0000ed
:1020200052610000772c0000205400005f52000035
:10203000617700002c200000485f00005261000022
:10204000772000000d000000536500007269000059
:10205000616c00002c20000050500000422c000059
:10206000205400002c200000482c000020410000db
:10207000444300005f520000617700002c20000004
:10208000545f000052610000772c000020480000df
:102090005f520000617700002c200000442c0000fb
:1020a000204800002c2000004d2c00002053000090
:1020b000200d00000045000045500000524f000078
:1020c0004d200000556e00006c6f0000636b000037
:1020d00065640000002a00004545000050520000e1
:1020e0004f4d0000204c00006f6300006b65000046
:1020f000642a000000310000364a0000554e0000fe
:102100003235000000460000572000004461000006
:102110007465000020250000732000000d0a0000f7
:1021200000530000656e0000736f00007220000015
:1021300042610000726300006f64000065200000cf
:1021400025730000200d00000a000000704100000f
:102150002f500000504d000020200000256c000092
:10216000642c00002041000076670000202500005c
:10217000752c00002000000042690000617300001f
:10218000202500006c6400002c20000000430000ab
:10219000452b0000524500002044000069730000f8
:1021a000636f00006e6e00006563000074650000e0
:1021b000642c000020000000546f00006e2000001e
:1021c000256c0000752000000d0a0000004e000084
:1021d0007831000030200000257500002c20000020
:1021e000546f00006666000020250000642c00008b
:1021f000204800006f660000662000002564000093
:10220000200d00000a0000004c5000004441000076
:10221000434400004154000030200000256c0000c1
:10222000752c0000204c0000505400004941000073
:10223000434f00004e300000202500006c75000068
:10224000200d00000a0000004f4300002020000085
:1022500020410000444300002047000020250000ea
:10226000752c00002054000020250000752c000073
:102270002048000020250000752000000d0a000005
:10228000005a0000657200006f2000004144000009
:102290004320000047200000257500002c2000008e
:1022a00054200000257500002c200000482000006c
:1022b00025750000200d00000a000000537000008a
:1022c000616e0000204100004443000020470000f0
:1022d00020250000752c000020540000202500005f
:1022e000752c00002048000020250000752000000b
:1022f0000d0a0000004d00006f640000756c0000c6
:102300006520000042610000726300006f640000fd
:10231000652000002573000020000000456e0000cd
:10232000746500007220000041440000432000005a
:10233000417600006572000061670000653a0000a8
:1023400020000000456e000074650000722000004f
:102350004d6f0000647500006c65000020420000b5
:1023600061720000636f0000646500003a200000a5
:10237000004500006e7400006572000020530000ec
:10238000656e0000736f0000722000004261000063
:10239000726300006f640000653a000020000000d6
:1023a0005365000074740000696e0000672000002f
:1023b0004f4300002e2e00002e000000646f00002e
:1023c0006e6500000d00000053650000747400008d
:1023d000696e0000672000007a650000726f0000df
:1023e0002e2e00002e000000456e000074650000d7
:1023f000722000004c5000004441000043440000a3
:1024000041540000303a000020000000456e0000fa
:1024100074650000722000004c5000005449000018
:10242000414300004f4e0000303a00002000000001
:10243000646f00006e6500002e2e00002e2e00003e
:10244000726500007374000061720000746900001e
:102450006e6700000d000000456e0000746500000e
:1024600072200000704100002f500000504d00000d
:102470003a200000004500006e7400006572000004
:1024800020500000504200003a20000000450000ab
:102490006e7400006572000020540000204f0000a0
:1024a0006666000073650000743a000020000000ba
:1024b000456e000074650000722000004820000096
:1024c0004f66000066730000657400003a2000004b
:1024d000004500006e74000065720000204e000090
:1024e00078310000303a000020000000456e000006
:1024f0007465000072200000496e0000666f0000e5
:102500003a20000000250000732000000d0a0000a2
:0425100000000000c7
:020000040000fa
:1025140042002400023b8800f20720009201880058
:10252400f01fb20002e02f00000041000108bb00d0
:102534000500fc0050052000303b8800a00a200064
:10254400303b880061e7a8000000000000000000a4
:1025540001002800023b800002806000fdff3a0079
:10256400a0002000fb0a070000000600881f780076
:10257400f107200091018800f01fb20008e02f004d
:10258400000444001804ba0010002000f10a0700f7
:10259400080078004f0478000000060002002800bc
:1025a4003304800083006100fdff32000000fb0063
:1025b400a011880010002000e60a070000000600b1
:1025c400881f780000047800184078000004e000b8
:1025d40004003200f1ff0700584078000004e000d6
:1025e400fcff3a004f04780000000600889fbe00fc
:1025f4008a9fbe008c1f7800000678000060fe00f1
:102604003b862000090820008b8444000b007800de
:102614008040eb0001687800890f5000fdff3a000c
:102624000f0037003104800001006500fdff320017
:1026340087c0a900b81180000c00e000020032003d
:1026440008407800d5ff0700ed4f54000900320020
:10265400886d7800898f550002003a000500370024
:102664000a0024003104800001006500edff3200ff
:10267400efff37004f0678004f05be004f04be0041
:1026840000000600e408e20003003200c004200059
:1026940019fb07000400370080f72800801f78002a
:1026a40017fb07008f87e900c0f72800801f780018
:1026b40013fb07008f87e90087c0ab0004003a00d2
:1026c400010024003204800002806000fdff32001b
:1026d40087c0a900b011800091c5b30080cf50001d
:1026e4000b003a00e408e20002003200e428ef00a4
:1026f40001003700e4a8ef0021478000e00c20002f
:1027040083ff0700a0f82800aefa07000400370092
:1027140030f92800abfa0700a00020008d0a07005a
:1027240000000600889fbe008a9fbe008c1f7800b0
:1027340000057800014678000a00e0000b00320032
:102744008004eb00abc2b300081020000b407800fb
:1027540092ff07009111800001006400fdff320028
:102764008904e800890f5500f8ff3e000c04e000de
:102774000200320090f9280092fa07004f06780010
:102784004f05be004f04be0000000600a00020005c
:10279400000000000000e900fdff3a000000060010
:1027a400c9e2a800c9c2a800cdc2a900cde2a9000f
:1027b40000000600c9e2a800f4ff0700c9c2a8008f
:1027c400f2ff0700c9e2a900f0ff0700c9c2a9008f
:1027d400eeff070000000600ecff0700c9e2a900b5
:1027e400eaff0700c9c2a800e8ff0700c9e2a80081
:1027f400e6ff070000000600889fbe0080447800c2
:10280400c9c2a90088c0b3000904e00002003d0069
:10281400c9e2a80001003700c9e2a900dbff0700f4
:10282400c9c2a800d9ff0700c9c2a9000844e90029
:102834000200320089c44400f3ff3700c9e2a80053
:10284400d2ff0700c9c2a800d0ff070050168000bd
:102854004f00de00e6e8b700c9c2a9004f04be007d
:1028640000000600889fbe008a9fbe008c1f78006f
:1028740000467800c9e2a800c9c2a9008044eb0060
:1028840009457800080024000b002800bfff07005a
:1028940089c44400c9c2a800511680000100640024
:1028a400fcff3200b9ff070051168000018065006b
:1028b400010032000904a000c9c2a9000a45e800c9
:1028c400e84f5500f1ff3a000c04e000020032002a
:1028d400c9e2a90001003700c9e2a800abff070064
:1028e400c9c2a800a9ff0700c9c2a900c9e2a8007b
:1028f400094078004f0678004f05be004f04be0023
:1029040000000600889fbe00c9e2a80098c0b3007a
:1029140009002800c9c2a8009cff0700c9c2a90079
:102924009aff0700511680000180640002003a00fb
:102934000844e900f7ff3a00a7ff07004f04be0070
:1029440000000600889fbe009aff070048c9b30034
:1029540008407800a8ff07000004e000fcff3a00ec
:1029640038ceb30008407800a3ff07000004e0005d
:10297400fcff3a0098ff07008eff070058c9b30018
:10298400084078009cff07000004e000fcff3a00c8
:1029940010c0b300b3ff0700c804dd000040eb0023
:1029a400b0ff0700004478008bff07000880fb009d
:1029b400090070004f04be0000000600889fbe009e
:1029c4007cff070008c8b300084078008aff0700ae
:1029d4000004e000fcff3a0038ceb3000840780061
:1029e40085ff07000004e000fcff3a007aff0700bf
:1029f40070ff070018c8b300084078007eff070086
:102a04000004e000fcff3a0010c0b30095ff07008b
:102a1400c804dd000040eb0092ff0700004478008a
:102a24006dff07000880fb00090070004f04be0022
:102a340000000600889fbe008a1f7800000178000d
:102a4400010578006110b80071f8070022852b0099
:102a5400f3322400e5f80700020020000378230085
:102a6400e2f8070062662600b323240014f7070087
:102a74000004be006150b90062f8070002002000a3
:102a8400a34724006cf707000801be000df70700f8
:102a94004f0578004f04be0000000600889fbe006a
:102aa40044ff070008c8b3000840780052ff07003d
:102ab4000004e000fcff3a0058ceb3000840780060
:102ac4004dff07000004e000fcff3a0042ff07004e
:102ad40038ff070018c8b3000840780046ff070015
:102ae4000004e000fcff3a0010c0b3005dff0700e3
:102af400c804dd000040eb005aff070000447800e2
:102b040035ff07000880fb00090070004f04be0079
:102b140000000600889fbe008a1f7800000178002c
:102b2400010578006110b80039f8070002002000a0
:102b3400a32f2400adf8070002002000037823002f
:102b4400aaf8070002002000030c2400dcf60700aa
:102b54000004be006150b9002af8070002002000fa
:102b6400a347240034f707000801be00d5f6070088
:102b74000004be0002002000832c2400e3f70700b9
:102b84000000e00006003c006011b8000800be0030
:102b9400dcf707000000e000040035000400370003
:102ba40008002000892c2400010037006044b8008c
:102bb4000800be004f0578004f04be000000060068
:102bc4004023a8004003ab00feff320000000600d3
:102bd40041e3a8000000060041e3a900000006004c
:102be4007f00600002fe2f00431a80000301610091
:102bf40002017000421a8800e78060004509dd0088
:102c0400f3f12f00441a8000848161008301710074
:102c1400431a88004800dd00f20f2e00431a80009a
:102c24000301610002017000421a8800cd08dd0032
:102c3400f0ff21004803b60000807000401a8800ad
:102c4400000006004023a8004003ab00feff320052
:102c54000018800000000600cca2a900cd82a900c3
:102c64008100200005022000f4fb2f008100e90010
:102c74000129de00610161004611dd006616800055
:102c8400860162008301710063168800cca2a8004b
:102c9400cca2a9000100e000f4ff3a0001012000e9
:102ca400f4fb2f008100e9000101de0061016100f5
:102cb4004611dd0065168000850162008301710004
:102cc40063168800cca2a800cca2a9000100e000f1
:102cd400f4ff3a00cd82a80000000600cca2a900af
:102ce400cd82a90081002000d5022000f4fb2f0032
:102cf4008100e9000129de00610161004611dd0067
:102d040066168000860162008301710063168800e4
:102d1400cca2a800cca2a9000100e000f4ff3a0074
:102d240001012000f4fb2f008100e9000101de0015
:102d3400610161004611dd006516800085016200b5
:102d44008301710063168800cca2a800cca2a9005c
:102d54000100e000f4ff3a00cd82a8000000060064
:102d6400881f78000002be00cca2a900cd82a90071
:102d740080002000d702200016002000f3fb2f0063
:102d84000000e9008038de0086806000c608dd00af
:102d94006816800008816100028170006216880054
:102da400cca2a800cca2a9000000e000f4ff3a00e5
:102db4000102200016002000f0fb2f008100e90032
:102dc4000401be00810378008703e9000300330097
:102dd4008301d1000281d300fbff370002016300ad
:102de4004611dd00681680008801600083017100cf
:102df40063168800cca2a800cca2a9000100e000c0
:102e0400eeff3a00cd82a8004f04780000000600cf
:102e1400cca2a900cd82a90080002000d406200005
:102e2400f3fb2f000000e9008020de00e180600059
:102e3400c608dd006516800005816100028170000e
:102e440062168800cca2a800cca2a9000000e00071
:102e5400f4ff3a0081002000f40f2000f3fb2f0060
:102e64008100e90001a0de00610060004600dd0091
:102e740065168000058161000201700062168800f9
:102e8400cca2a800cca2a9000100e000f4ff3a0003
:102e94000000eb00cca2a800000040001216800045
:102ea4004711de006101610000007100cca2a9009d
:102eb4008100e800f08f5000f6ff3a00cd82a800b0
:102ec40000000600cca2a900cd82a9008000200049
:102ed400d4062000f3fb2f000000e9008020de0070
:102ee400e1806000c608dd00651680000581610090
:102ef4000281700062168800cca2a800cca2a900ae
:102f04000000e000f4ff3a0081002000f40f2000ec
:102f1400f3fb2f008100e90001a0de0061006000e6
:102f24004600dd0065168000058161000201700025
:102f340062168800cca2a800cca2a9000100e0007f
:102f4400f4ff3a006011b80000022000cca2a800ef
:102f54000201410083814900141680004722de00eb
:102f6400614262000482fb008002eb0004017100f4
:102f740085817100cca2a9008100e800808f5000f7
:102f8400f2ff3a00cd82a8000200be000000060055
:102f9400c509de004b0add004501de0002017200b6
:102fa4007f0161008001eb0000002d007100200012
:102fb400fa0f5100e08f59007f00320000802e008c
:102fc40031002000f90f5100e08f59007a003200df
:102fd40000da2f0021002000f80f5100e08f590083
:102fe400750032000010270021002000f70f510067
:102ff400e08f59007000320000402f0011002000c3
:10300400f60f5100e08f59006b003200004c2d0088
:1030140011002000f50f5100e08f590066003200c6
:10302400006a280011002000f40f5100e08f5900bd
:10303400610032000070270011002000f30f5100de
:10304400e08f59005c00320080c024001100200091
:10305400f20f5100e08f59005700320000a02f00fa
:1030640001002000f10f5100e08f5900520032009e
:1030740000b82b0001002000f00f5100e08f590030
:103084004d00320000c4290001002000ef0f510060
:10309400e08f59004800320000d0270001002000d2
:1030a400ee0f5100e08f5900430032000053270017
:1030b40001002000ed0f5100e08f59003e00320066
:1030c40000dc250001002000ec0f5100e08f5900c6
:1030d4003900320000e2240001002000eb0f51000f
:1030e400e08f59003400320000e823000100200082
:1030f400ea0f5100e08f59002f00320000ee220049
:1031040001002000e90f5100e08f59002a0032002d
:103114000071220001002000e80f5100e08f5900e7
:103124002500320000f4210001002000e70f5100c7
:10313400e08f5900200032000077210001002000b8
:10314400e60f5100e08f59001b00320000fa200006
:1031540001002000e50f5100e08f590016003200f5
:1031640080bb200001002000e40f5100e08f5900d3
:1031740011003200007d200001002000e30f510007
:10318400e08f59000c003200803e20000100200036
:10319400e20f5100e08f59000700320000002d00bb
:1031a40071002000e10f5100e08f590002003a0045
:1031b400800c200001002000000006000000220016
:1031c400a5fe07000018200091032000e4fe07007c
:1031d40020002000df070700000822009efe0700f1
:1031e40038ff070000000600ef34b000889fbe00df
:1031f4008a9fbe008c9fbe008e1f78003d0807008a
:1032040040a7a80066fd0700e02e2000d1070700b4
:103214004027ab0002003a004007ab000200320036
:103224004027a9004007a900b9f32f008f84440068
:103234000004eb000c08200008007800cbfc070019
:10324400806c78000884e8008c0f5400faff3a0080
:10325400c2f32f000f0141000040eb0000c19800b1
:103264006b004100d08f9f00c1f72f008f8040007a
:10327400b0f32f000f004000df899700d06878007a
:10328400830f5000fdff3a000040eb00904f9f0079
:1032940072014100e28f9f0091f82f008f8040005f
:1032a40080f42f000f004000d06878006f899700e9
:1032b400820f5000fcff3a000040eb0080579f0053
:1032c400a0f82f000f00400085f707000008200039
:1032d400a6fc07006104b800c044dd00080020001b
:1032e40020082000a1fc07008000eb00000274000d
:1032f40081827400c4b79f00d5b79f00610052005b
:10330400e0805a00e30f4000e08f480004003600dc
:10331400f07b2f0011002000c0b79f00d1b79f00a1
:103324004008200091fc07006104b800c044dd009f
:1033340008002000600820008cfc07008000eb00df
:103344000001740081817400e2b79f00f3b79f000d
:1033540061005100e0805900e30f4000e08f480015
:10336400040036000474220005002000e4b79f0026
:10337400f5b79f00000920007cfc0700f0a79f0020
:103384004009200079fc070090af9f0080092000cd
:1033940076fc0700909f9f00c009200073fc070083
:1033a40000047800e009200070fc07006101b80007
:1033b4006140b900c000dd0000002000000271007f
:1033c40081827100f4af9f0085b79f00000a20003e
:1033d40066fc0700809f9f00400a200063fc0700f2
:1033e400c09f9f00800a200060fc0700a09f9f00f0
:1033f400c00a20005dfc0700c0af9f008000780079
:103404004f9897008bfd0700f08f9f0081979f00d6
:10341400e00a200055fc0700d0a79f00000b200005
:1034240052fc0700f0979f00400b20004ffc070060
:10343400e0979f00800b20004cfc0700b0a79f0082
:10344400c00b200049fc0700c0a79f00e00c20002f
:1034540046fc070020478800000d200043fc0700bd
:103464000000e00001003c0010002000e0af9f00dd
:1034740000102000efa99700808f51000100340054
:10348400e0af9f00200d200038fc0700e09f9f0064
:10349400400d200035fc0700e0a79f00600d2000d0
:1034a40032fc0700a0b79f0069f22f008f8444000c
:1034b400880d20000c102000080078002bfc070069
:1034c400806c78000884e8008c0f5400faff3a00fe
:1034d4000040eb00b07f9e0059ea2f008f84440027
:1034e400081020000c202000080078001ffc0700b2
:1034f400806c78000884e8008c0f5400faff3a00ce
:103504000040eb00e0679e0080902000d2fd0700a1
:10351400902c2000f1fd070080c02000cefd0700a4
:10352400c0062200edfd0700001f2200cafd0700af
:1035340000012000e9fd070000412000c6fd07004e
:10354400902c2000e5fd070080a22000c2fd0700aa
:1035540090002000e1fd0700c0382200befd0700f6
:1035640040102000ddfd070040a02000bafd070048
:1035740090852400d9fd070040a02000b6fd070077
:10358400b0272f00d5fd070000a02000b2fd0700e2
:1035940090002800d1fd0700002f2200aefd070097
:1035a4000000eb00cdfd0700a00f2000e906070096
:1035b400400e2200a8fd07002fb297000400e0008f
:1035c40004003200c000200001002000e4fd0700d8
:1035d400020037006000b800e1fd070080122200fd
:1035e4009dfd07001000200001002000dcfd070005
:1035f4004012220098fd0700400320000100200033
:10360400d7fd0700c038220093fd0700f0d0230047
:10361400f1052000d2fd0700001822008efd0700ee
:103624003011200001002000cdfd070040042200dd
:1036340089fd07001030200001002000c8fd0700ac
:10364400801a220084fd0700402120000100200090
:10365400c3fd0700001222007ffd07004fb0970052
:10366400dfb09700befd0700c00e22007afd070000
:103674006fb09700ffb09700b9fd07006eca2f0026
:103684000f07470041ea2f008f80400040ca2f00f7
:103694000f0040001fa9970002287800810f5000f6
:1036a400fdff3a0085382100d5979f00c0332700dd
:1036b400d0af9f00017d2000b19f9f00821a260099
:1036c40092b79f008001eb00b3b79f006022b8005f
:1036d400a4af9f00b5af9f008002eb00d59f9f0071
:1036e4006000b80090a79f00a1a79f00afb097000b
:1036f4000100e0000b003200b0fe07002fa9970084
:10370400bfa997000201400083814800a2af9f0037
:10371400b3af9f00bfb197008301e800b3b79f0028
:1037240017003700801a22004bfd0700a0812000fb
:10373400010020008afd07004006200085060700de
:103744009efe07000002780084a79f00801a2200d2
:1037540041fd0700e08020000100200080fd0700fb
:10376400400620007b06070094fe070080027800d4
:10377400f59f9f003fb097000004b000b0b79f00d2
:103784008040eb0081f79f00f00f20003fb19700cd
:10379400800f5100e10036001fa29700afa29700ee
:1037a40061024200e0824a0094a79f00a5a79f00ff
:1037b4000012220028fd0700c2fd0700e00f5000a0
:1037c400e08f580002003a000000fe00ffff3700bf
:1037d40040ea2f000f00400061ea2f008f80400074
:1037e400c0207800800f5700fdff3a00df9a970051
:1037f4000500e000030032004f909400b0979c0055
:10380400070037002fa99700bfa99700481add00c9
:103814004810de0000007200c818de00b0979c005b
:103824006fa897006102b9006000b800e00f520071
:10383400e08f5a000b0032000e83e90004004200be
:103844000003430042ca2f000f0141006000b8008a
:10385400d201780000804100e0804800860f5100ca
:10386400fbff3a000401be0094f507000001780054
:1038740082af9f0051fc070090b79f0087fc0700b0
:10388400d0af9f00cfa897001fb0970069fc070036
:103894000004be00cfa097005fa897009dfc07001e
:1038a4000005be0002002000832c24000800be0096
:1038b4004ef5070097f4070080017800b39f9f003e
:1038c40002002000832c24000a00be0047f50700f4
:1038d400b1f4070000027800d4979f00afb29700bc
:1038e4000500e000610032006fb09700ffb0970060
:1038f400a7fd0700c6f407000006be007fa19700dd
:103904006110b800c2f40700020020000370240014
:103914006bf30700020020000380230033f5070047
:10392400325c2f0083fe230030f507000005be0043
:103934008fa997006118b800b5f4070002002000b1
:10394400037024005ef307000200200003802300bc
:1039540026f50700325c2f0083fe230023f50700c1
:103964000a01be0056f307000c01be00b2f30700c3
:1039740082b22600e3e624001cf5070090979f001e
:10398400a1979f009faa97006128b800a0f40700a0
:10399400020020000370240049f307000200200005
:1039a4000380230011f50700325c2f0083fe2300ff
:1039b4000ef507000a01be0041f307000c01be002a
:1039c4009df3070082b22600e3e6240007f5070012
:1039d4000005be007f8997008f9197000800be0004
:1039e40037f307000004be005fa197006110b80020
:1039f40087f4070002002000031224008ef307005e
:103a04000001be000800be008bf30700dbf30700d3
:103a14000a01be00f5f40700b0979f00c1979f000c
:103a24000001be001f909700af90970024f3070099
:103a34000004be007fa897008fb0970071f40700c0
:103a44000001be000800be007bf307000200200056
:103a5400832c2400e5f4070002002000a34724007f
:103a6400e2f407000005be0016003700ff9a970035
:103a74006128b80066f407000004be000fa1970097
:103a84006110b80062f407000001be000800be0027
:103a94000bf307000200200003802300d3f4070087
:103aa400325c2f0083fe2300d0f407000240220082
:103ab40043972400cdf4070016f4070051f40700df
:103ac4000005be00ef9997000300e0000a003200f1
:103ad4000002eb00b4b79f006000b800a0af9f00e5
:103ae400b1af9f008000eb00d19f9f000041eb002d
:103af40082f79f00090037008001eb00b3b79f00f5
:103b04006022b800a4af9f00b5af9f008002eb0015
:103b1400d59f9f00d0c0b30080f79f0087c0ab0043
:103b240006003200b011800080f79f003202ab0023
:103b3400e8043a0087c0a9003222a9008ff0970058
:103b4400edcf500068003a006fa197000200e0003a
:103b540014003200dfa99700831f78000fb297008a
:103b6400841f7800efa29700851f78002f9097009c
:103b7400801f7800ff909700811f78000a00be0024
:103b8400e4f30700809fbe00f2f62f00829f4700f7
:103b9400b0f92800801f7800d9f50700f287570094
:103ba4006f0037001fa09700afa0970018f407001c
:103bb4000004be0002002c00837a24001ef30700d8
:103bc400f5f30700b08f9f00c18f9f008000eb00ca
:103bd4000ff4070002002c00837a240083f407000a
:103be4000001be000800be00b5f207000004be00dc
:103bf40002002000135624000ff30700e6f3070029
:103c0400908f9f00a18f9f008000eb0000f40700bd
:103c1400020020001356240074f407000001be00c3
:103c24000800be00a6f207000004be000200200047
:103c34000327240000f30700d7f307000006be00a3
:103c44008000eb00f2f307000200200003272400a9
:103c540066f407000001be000800be0098f20700e9
:103c6400cdf30700801f78008c1f7800ff81970038
:103c7400831f78000f8a9700841f78009faa9700fb
:103c8400851f78004fa89700801f7800afa0970089
:103c9400811f78006f899700c210de00b0472100b1
:103ca4000008b800811fd100b0472100bf919700e0
:103cb4000098b900c388de003f9297004fa0de0051
:103cc400809f50000a00be0092f30700809fbe0050
:103cd40075f62f00859f4700a0fb2800801f780001
:103ce40087f50700fa875700c0c4b3008ff0970028
:103cf40080cf50000e003a00e408e2000c003200cd
:103d04006fa197000200e000030032008001eb0085
:103d1400e3a79f00020037000082eb00e4a79f00a6
:103d2400efa09700400d2000f9f9070010003700bc
:103d340080c6b3008ff2970080cf520008003a008b
:103d44006fa097000000e0000300320010ff28007d
:103d54001cf507000a0037004002290019f5070086
:103d640050c6b3008ff0970080cf50000800320097
:103d7400e0c5b3000ff19700804f510004003200fa
:103d840000c5b3008ff1970080cf5100a6003a0020
:103d9400801a2200b0fb0700a0812000010020004f
:103da400effb070040062000ea04070003fd0700bc
:103db4000002780084a79f00801a2200a6fb070057
:103dc400e080200001002000e5fb07004006200001
:103dd400e0040700f9fc070080027800f59f9f00cb
:103de400801a22009cfb07004021200001002000d3
:103df400dbfb070040062000d60407008040eb00f0
:103e04009001200047fa0700e408e20005003200b0
:103e1400b0052900801f780039f507008f87e90075
:103e240004003700b0062900801f780034f507002d
:103e34008f87e90011c0b300b001200039fa0700f0
:103e4400b0072900801f780030082900801f7800ff
:103e54002bf5070080f32f00809f470010092900ed
:103e6400801f780026f50700afa89700811f78000f
:103e74003faa97006a21b900afaa97006a28b80040
:103e840081004100809fbe00600a2900801f7800e5
:103e94001bf50700f08757002fb097000000e000e3
:103ea4001a0032007f9997006110b80058f3070098
:103eb4000004be008fa197006118b80054f30700f6
:103ec4000001be000800be00fdf107000200200052
:103ed40003802300c5f30700325c2f0083fe230018
:103ee400c2f307000240220043972400bff30700f7
:103ef40008f30700809fbe00c00b2900801f7800d4
:103f0400fff40700e687570004003700700c29000f
:103f1400801f7800faf407008f87e9001fa297003a
:103f2400afa29700849fbe00c00d2900801f7800b7
:103f3400f3f407009fa29700851f78000fa897004d
:103f4400801f78008fa09700811f7800700e2900d1
:103f5400801f7800eaf407007fa997008fb19700cb
:103f6400829fbe003faa9700cfaa9700849fbe00fd
:103f740040102900801f7800e1f40700bf8a9700f1
:103f8400851f78003f889700801f78009f989700ce
:103f9400811f780040122900801f7800d8f40700a0
:103fa4000f02b1006f919700821f7800bf999700ac
:103fb400831f78007fa29700841f780010142900c3
:103fc400801f7800cef40700ff9a9700851f7800c1
:103fd4005f909700801f7800bf909700811f780042
:103fe400e0152900801f7800c5f40700f08757000a
:103ff4007f6196000204e0000600340073f22f0093
:10400400839f4700b0172900801f7800bcf4070085
:10401400e487570090f928006af4070011c0b30040
:1040240020042000bff9070030c4b3000ff297004a
:10403400804f52000e003a00e408e2000c00320007
:10404400ef9a97000500e000030032000000eb0047
:10405400e09f9f00020037008080eb00e19f9f00fb
:10406400ef989700200d200029f907004c00370035
:1040740010c4b3000ff19700804f510020003a00a4
:10408400e408e2001e00320011c0b3002004200046
:10409400a4f90700e0182900801f780098f40700ad
:1040a4001000200051f9070040862000edf30700be
:1040b4000004780090f9280042f4070011c0b3000e
:1040c4002004200097f907008f87e9000800e0002a
:1040d40001003c0018002000e8af9f000010200001
:1040e40088017800808f510001003400e0af9f0008
:1040f400efa89700000d200005f907009201370092
:10410400d0c4b3000ff29700804f520024003a004d
:10411400e408e2002200320011c0b30020042000b1
:1041240080f90700201a2900801f780074f4070022
:104134000000eb002df9070090f9280021f4070096
:1041440032862000f40041008f87e90060f22f00de
:104154000f00400052687800810f5100fdff3a00c3
:104164000040eb00b07f9e0069f22f008f84440072
:10417400880d20000c102000d900fb0008007800f6
:10418400e3f807000884e8008c0f5400faff3a00b3
:1041940011c0b3002004200062f907006e0137004b
:1041a40020c4b3008ff2970080cf520066013a001a
:1041b4002fb097000000e00063013200e408e20041
:1041c4006101320011c0b3002004200055f907003a
:1041d400901b2900801f780049f407000000eb00c1
:1041e40002f9070090f92800f6f307003286200050
:1041f40001042000828040008f87e900b0f32f0083
:104204000f00400052687800810f5100fdff3a0012
:104214000040eb00c0ff9e00b9f32f008f844400e0
:104224000004eb000c082000d900fb000800780013
:10423400b7f807000884e8008c0f5400faff3a002e
:10424400c1f72f008f804000b0f32f000f00400013
:104254005f899700d0687800800f5100fdff3a0015
:104264000040eb00904f9f0091f82f008f8040009a
:1042740080f42f000f004000d06878006f89970009
:10428400800f5100fcff3a000040eb0080579f0074
:10429400a0f82f000f00400091f3070062e12a000c
:1042a40013002000820f5000838f58005900320001
:1042b40022e22a0013002000820f5000838f58004e
:1042c4005d003200a2e72a0013002000820f500094
:1042d400838f580061003200f2ed2a0013002000a1
:1042e400820f5000838f58006500320062f42a0068
:1042f40013002000820f5000838f580069003200a1
:10430400b2fa2a0013002000820f5000838f580055
:104314006d00320082f62a0013002000820f500044
:10432400838f580071003200c2fc2a001300200061
:10433400820f5000838f58007500320022012b0039
:1043440013002000820f5000838f58007900320040
:1043540002032b0013002000820f5000838f5800ab
:104364007d003200120d2b0013002000820f50003c
:10437400838f58008100320052132b001300200059
:10438400820f5000838f58008500320052db2a00d0
:1043940013002000820f5000838f580089003200e0
:1043a40022f72a0013002000820f5000838f580048
:1043b4008d003200a2032b0013002000820f500056
:1043c400838f580091003200d2062b001300200086
:1043d400820f5000838f58009500320022102b006a
:1043e40013002000820f5000838f58009900320080
:1043f4000474220005002000e4b79f00f5b79f0075
:10440400f07b2f0011002000c0b79f00d1b79f00a0
:10441400980037000274220003002000e2b79f00d6
:10442400f3b79f00c47a2f0015002000c4b79f0083
:10443400d5b79f008f0037000074220001002000d0
:10444400e0b79f00f1b79f00c27a2f00130020004d
:10445400c2b79f00d3b79f008600370004642200d0
:1044640005002000e4b79f00f5b79f0050772f00a8
:1044740011002000c0b79f00d1b79f007d00370016
:104484000274220003002000e2b79f00f3b79f00ec
:10449400c47a2f0015002000c4b79f00d5b79f0031
:1044a400740037000074220001002000e0b79f0070
:1044b400f1b79f00527e2f0013002000c2b79f0067
:1044c400d3b79f006b00370004742200050020005e
:1044d400e4b79f00f5b79f00507e2f001100200025
:1044e400c0b79f00d1b79f0062003700027422005a
:1044f40003002000e2b79f00f3b79f00547e2f0013
:1045040015002000c4b79f00d5b79f00590037009d
:104514000074220001002000e0b79f00f1b79f0063
:10452400527e2f0013002000c2b79f00d3b79f0014
:10453400500037000474220005002000e4b79f00f7
:10454400f5b79f00f07b2f0011002000c0b79f003b
:10455400d1b79f00470037000274220003002000f7
:10456400e2b79f00f3b79f00f47b2f0015002000f3
:10457400c4b79f00d5b79f003e00370000742200e7
:1045840001002000e0b79f00f1b79f00826a2f006e
:1045940013002000c2b79f00d3b79f003500370037
:1045a4000474220005002000e4b79f00f5b79f00c3
:1045b40040932f0011002000c0b79f00d1b79f0087
:1045c4002c0037000274220003002000e2b79f0091
:1045d400f3b79f00a4792f0015002000c4b79f00f3
:1045e400d5b79f002300370000742200010020008b
:1045f400e0b79f00f1b79f00e27e2f001300200078
:10460400c2b79f00d3b79f001a003700047422007a
:1046140005002000e4b79f00f5b79f0030532f003a
:1046240011002000c0b79f00d1b79f0011003700d0
:104634000274220003002000e2b79f00f3b79f003a
:1046440004592f0015002000c4b79f00d5b79f0060
:10465400080037000074220001002000e0b79f002a
:10466400f1b79f00826a2f0013002000c2b79f0099
:10467400d3b79f004fb29700dfb297004028de0007
:10468400010020008000780000082000a0f7070047
:10469400cfb09700200820009df7070000122200e9
:1046a4006df907004fb09700dfb09700acf9070031
:1046b4006fb19700ffb197004018de0001002000a1
:1046c400800078004008200091f70700efb09700c1
:1046d400600820008ef70700c00e22005ef9070074
:1046e4006fb09700ffb097009df907008000eb00c2
:1046f400c00a200086f7070001352c00e00a2000dc
:1047040083f707008000eb00c00b200080f7070050
:10471400c1032000000d20007df7070011c0b30085
:1047240020042000fff707008001eb00c3a79f00cf
:1047340004352c00d4a79f00c3af9f00c5032000fd
:10474400e5af9f0008003700f0c4b3008ff0970076
:1047540080cf50000400320020c4b3000ff1970052
:10476400804f510032003a00afb197000300e000df
:104774002f003200e408e2002d00320011c0b30023
:1047840020042000e7f70700001d2900801f78009f
:10479400dbf20700400e22002ff907006000b8008a
:1047a4006ff90700e0ab20006a02070083fa0700f4
:1047b4000002e900e4a79f008400780000092000bb
:1047c40053f707008fb09700000a200050f7070046
:1047d400cfa89700000b20004df70700400e2200e1
:1047e4001df90700c0002000010020005cf907004b
:1047f400a00f200057020700e01d290071f20700f6
:1048040011c0b30020042000c6f707008f87e90019
:10481400dfaa9700f5979f001fb09700809f9f0025
:104824008000eb00b1b79f000081eb00d29f9f0096
:10483400a0c5b3008ff1970080cf51000300320070
:104844007840500080cf51002c003a002fb29700de
:104854000400e00029003200e408e20027003200ee
:1048640011c0b30020042000aef70700401e290049
:10487400801f7800a2f207008f87e90020c4b300ec
:104884008ff2970080cf520003003a007fa0970078
:1048940090af9f00020037008fa8970091af9f0050
:1048a400cfa897001fb0970062f80700f08f9f0011
:1048b40081979f009fa897004009200014f70700e4
:1048c4009fb09700400a200011f70700dfa8970067
:1048d400400b20000ef70700e01d290039f2070005
:1048e40011c0b300200420008ef70700dfa9970051
:1048f400e3979f001fb29700c49f9f0000c5b300b9
:104904008ff2970080cf520039003a00e408e200a9
:104914006b00320011c0b3002004200081f70700af
:10492400401f2900801f780075f207001000200046
:104934002ef7070090f9280022f207004086200095
:10494400e7f107000004be008f87e900e00f500084
:10495400e08f5800070032004008de008000780035
:1049640000082000eaf607008800780020082000ec
:10497400e7f6070060202900801f780060f2070036
:104984001000200019f7070090f928000df2070025
:1049940040862000d2f107000004be008f87e900a2
:1049a400e00f5000e08f5800070032004008de009e
:1049b4008000780040082000d5f6070088007800c1
:1049c40060082000d2f6070080212900fdf10700cd
:1049d40011c0b3002004200052f707004006200055
:1049e400dc01070020c7b30080f79f0034003700c4
:1049f40030c5b3008ff0970080cf500030003a00ec
:104a0400e408e2007300320011c0b3002004200067
:104a140044f70700c0222900801f780038f20700fd
:104a240010002000f1f6070090f92800e5f10700d6
:104a340040862000aaf10700a20020000300200005
:104a4400bfef0700e0af9f00f1af9f008080eb0055
:104a540080092000aef607006fa99700ffa9970010
:104a64004018de000100200080007800c00920000a
:104a7400a7f60700efa89700e0092000a4f60700b6
:104a84008080eb00800a2000a1f607008080eb0004
:104a9400800b20009ef6070011c0b3002004200004
:104aa40020f707008f87e9008081eb00b3a79f0000
:104ab400a39f9f0083027800959f9f0065003700a5
:104ac40070c4b3008ff0970080cf500041003a00cb
:104ad400e408e2005f00320011c0b30020042000ab
:104ae40010f70700b0232900801f780004f20700a4
:104af40010002000bdf6070090f92800b1f107006e
:104b04004086200076f107000004be002f91970034
:104b1400bf9197000f9097009f909700e8ee0700d1
:104b24000006be000800be0039f007000001be0008
:104b34000c00be0040ef070002002000832c24007c
:104b4400aaf0070002002000a3472400a7f00700f2
:104b5400f0ef0700e0af9f00f1af9f00ffa09700c8
:104b6400800920006af607006fa99700ffa9970043
:104b74004018de000100200080007800c0092000f9
:104b840063f60700efa89700e009200060f607002d
:104b94008fb09700800a20005df60700cfa8970029
:104ba400800b20005af6070011c0b3002004200037
:104bb400dcf607008f87e900dfa99700b3a79f0001
:104bc4000faa9700949f9f009fb29700a59f9f00f4
:104bd4003b00370030c7b3008ff0970080cf500000
:104be4001c003a0040a020001bf807009085240018
:104bf4003af8070040a0200017f80700b0272f005c
:104c040036f8070000a0200013f80700a0002800d1
:104c140032f80700400620004e01070031e2a900e7
:104c240031a2a90030e2a80090012000c011880040
:104c340097c0a80031e2a8003342a8004087a90029
:104c440040a7a900401f2000420107000040fe00c9
:104c5400ffff370040c5b3000ff19700804f5100ac
:104c640017003a00e408e2001500320011c0b30056
:104c740020042000abf6070070242900801f780070
:104c84009ff107001000200058f60700408620001e
:104c9400f4f00700b0af9f0080007800c00a200045
:104ca4001bf6070090f9280046f1070011c0b30075
:104cb400200420009bf607008f87e90036003700a8
:104cc40080c4b3008ff1970080cf510017003a00e1
:104cd400e408e2001500320011c0b30020042000f3
:104ce40090f6070080252900801f780084f10700d2
:104cf400100020003df6070040862000d9f0070090
:104d0400b0a79f0080007800c00b200000f60700c9
:104d140090f928002bf1070011c0b30020042000f3
:104d240080f607008f87e90027003700e0c4b3004e
:104d34000ff29700804f520017003a00e408e20097
:104d44001500320011c0b3002004200075f60700de
:104d540090262900801f780069f1070010002000c8
:104d640022f6070040862000bef00700c0a79f007f
:104d740080007800e00a2000e5f5070090f928009b
:104d840010f1070011c0b3002004200065f60700ed
:104d94008f87e9003300370050c4b3008ff29700c7
:104da40080cf520008003a0011c0b3002004200054
:104db4005cf6070033f6070011c0b300200420009e
:104dc40058f607003b00370090c4b3008ff09700fb
:104dd40080cf500023003a0011c0b300200420000b
:104de40050f6070060272900801f780044f107006f
:104df40010002000fdf5070090f92800f1f00700ed
:104e04003286200001082000828040008f87e9005c
:104e140050ea2f000f00400052687800810f5100c3
:104e2400fdff3a000040eb00e0679e0059ea2f00c6
:104e34008f844400081020000c202000d900fb00bf
:104e440008007800b2f507000884e8008c0f5400cd
:104e5400faff3a0011c0b3002004200031f6070025
:104e64001a00370090c6b3000ff19700804f51002d
:104e740010003a0011c0b3002004200029f60700f6
:104e8400ef6195000304e0000600340064ea2f009b
:104e9400849f470030282900801f780018f10700fc
:104ea400e487570011c0b300200420001df607005a
:104eb4000600370020c7b3008ff2970080cf52005e
:104ec40002003a000000fe00ffff37000060fe0011
:0c4ed40006fa3700b011800014fb370014
:020000040000fa
:104ee000080900000200000000000000e8080000bf
:104ef00020000000000000000a090000020000007d
:104f000002000000ffff000000080000e8000000b1
:104f1000000000000c09000002000000000000007a
:104f20006009000026000000020000008709000060
:104f30000087090009000000000200008909000044
:104f4000008909000e0201000000000000000000be
:104f500000000000060202000000000060090000de
:104f60008609000006000000000000000e09000095
:104f700052000000020000003031320033343500ae
:104f8000363738003941420043444500460030007e
:104f9000313233003435360037383900616263000e
:104fa0006465660000286e00756c6c0029000000c6
:104fb00001000000000a0000000064000000000082
:104fc000e8030000001027000000a0008601000098
:104fd00040420f000080960098000000e1f50500b7
:0c4fe00000ca9a003b0000000000000026
:020000040000fa
:104fec00000006004048880000000600004728002a
:104ffc00001a880000002800101a8800f0f3210025
:10500c00201a88004823ef004e23ef005023ef00b6
:10501c005423ef005623ef005823ef006023ef00da
:10502c006223ef00607f2200eeff07000000060005
:10503c0085a0ab0005003200404880000000e00075
:10504c00010032000000010085a0a900000006004c
:10505c004023a800000006004023a9000000060021
:10506c0000027800131a8000c219de00ff81610073
:10507c000000eb00023020008000eb00000040003c
:10508c00323278008100e80001007800818f5100f5
:10509c00faff31000000060080002000801188001b
:1050ac003222ef0070062000c011880031e2a80007
:1050bc003342a800000006003202ab00feff3200b3
:1050cc003222ab00010032003222a900b011800064
:1050dc000000060002202000931180008300610074
:1050ec00fdff3a000080fb00a011880000000600c4
:1050fc009011800061006000000006000000eb00d1
:10510c003322ab0004003a00004020003202b6000b
:10511c000000ea004f00de00000006009011800045
:10512c004700dd004f00de000000060090118000fb
:10513c000000060031e2a8003342a800000006007f
:10514c0031e2a9003342a90000000600881f780054
:10515c008a9fbe00000478000800e00006003200c0
:10516c000afa20000b0020000a00be004a000700cb
:10517c000804e900fcff3a004f05be004f0478001c
:10518c0000000600889fbe008a9fbe008c1f78001e
:10519c0000067800ff0f5600090036000c0478005a
:1051ac000a0820000b0020000a00be003a0007008d
:1051bc000802b100ff0f5400fbff3e007f066600a3
:1051cc000c00e0000600320048002000090020001e
:1051dc000800be00300007000c06e900fcff3a0096
:1051ec004f0678004f05be004f04be0000000600bd
:1051fc0000102300203a88004827ef004e27ef00cc
:10520c007027ef007227ef007427ef007627ef006e
:10521c007a27ef007e27ef000000eb00a2092000a8
:10522c00810720003374200081497800824978007e
:10523c00804978007205200061042000237420004e
:10524c008149780082497800804978000000060086
:10525c00c422ef001000220060168800700f20009e
:10526c0000168800e0e92000401688005620ef0068
:10527c005820ef006e20ef007020ef00c622ef00e8
:10528c00ce22ef007001200000278800c0292000ea
:08529c00102788000000060045
:020000040000fa
:1052a400f03fb1000180b10006003500ee030900b3
:1052b40000000000403fb1000180b100fbff3d0051
:1052c4001000b000203fb00002003500008009004b
:0852d4000000000000000600cc
:020000040000fa
:1052dc00808e200080077800780040000001880054
:1052ec000000060050488800ffff3700d8ff070079
:1052fc0004000700beff07003cff070066ff070025
:08530c0000000600000006008d
:020000040000fa
:0200000400fffb
:04fc00000000000000
:020000040000fa
:0200000401f009
:04000000ffff0000fe
:020000040000fa
:0200000401f009
:04000800ffff0000f6
:020000040000fa
:0200000401f009
:04000c0078ff000079
:020000040000fa
:0200000401f009
:04001000bbff000032
:020000040000fa
:0200000401f009
:04001400deff00000b
:020000040000fa
:0200000401f009
:04001800ffff0000e6
:020000040000fa
:0200000401f009
:04001c00feff0000e3
:00000001FF
